{
  "_format": "hh-sol-artifact-1",
  "contractName": "MedicalAccess",
  "sourceName": "contracts/MedicalStorage.sol",
  "abi": [
    {
      "anonymous": false,
      "inputs": [
        {
          "indexed": false,
          "internalType": "address",
          "name": "patient",
          "type": "address"
        },
        {
          "indexed": false,
          "internalType": "address",
          "name": "doctor",
          "type": "address"
        }
      ],
      "name": "AccessGranted",
      "type": "event"
    },
    {
      "anonymous": false,
      "inputs": [
        {
          "indexed": false,
          "internalType": "address",
          "name": "patient",
          "type": "address"
        },
        {
          "indexed": false,
          "internalType": "address",
          "name": "doctor",
          "type": "address"
        }
      ],
      "name": "AccessRevoked",
      "type": "event"
    },
    {
      "anonymous": false,
      "inputs": [
        {
          "indexed": true,
          "internalType": "address",
          "name": "user",
          "type": "address"
        },
        {
          "indexed": false,
          "internalType": "string",
          "name": "fileHash",
          "type": "string"
        }
      ],
      "name": "FileStored",
      "type": "event"
    },
    {
      "inputs": [
        {
          "internalType": "address",
          "name": "patient",
          "type": "address"
        },
        {
          "internalType": "address",
          "name": "doctor",
          "type": "address"
        }
      ],
      "name": "checkAccess",
      "outputs": [
        {
          "internalType": "bool",
          "name": "",
          "type": "bool"
        }
      ],
      "stateMutability": "view",
      "type": "function"
    },
    {
      "inputs": [],
      "name": "getFiles",
      "outputs": [
        {
          "components": [
            {
              "internalType": "string",
              "name": "fileHash",
              "type": "string"
            },
            {
              "internalType": "uint256",
              "name": "timestamp",
              "type": "uint256"
            }
          ],
          "internalType": "struct MedicalAccess.File[]",
          "name": "",
          "type": "tuple[]"
        }
      ],
      "stateMutability": "view",
      "type": "function"
    },
    {
      "inputs": [
        {
          "internalType": "address",
          "name": "doctor",
          "type": "address"
        }
      ],
      "name": "grantAccess",
      "outputs": [],
      "stateMutability": "nonpayable",
      "type": "function"
    },
    {
      "inputs": [
        {
          "internalType": "address",
          "name": "",
          "type": "address"
        },
        {
          "internalType": "address",
          "name": "",
          "type": "address"
        }
      ],
      "name": "permissions",
      "outputs": [
        {
          "internalType": "bool",
          "name": "",
          "type": "bool"
        }
      ],
      "stateMutability": "view",
      "type": "function"
    },
    {
      "inputs": [
        {
          "internalType": "address",
          "name": "doctor",
          "type": "address"
        }
      ],
      "name": "revokeAccess",
      "outputs": [],
      "stateMutability": "nonpayable",
      "type": "function"
    },
    {
      "inputs": [
        {
          "internalType": "string",
          "name": "_fileHash",
          "type": "string"
        }
      ],
      "name": "storeFile",
      "outputs": [],
      "stateMutability": "nonpayable",
      "type": "function"
    }
  ],
  "bytecode": "0x608060405234801561001057600080fd5b50610dd8806100206000396000f3fe608060405234801561001057600080fd5b50600436106100625760003560e01c80630ae5e739146100675780631f9838b5146100835780632da96d73146100b357806362e1f745146100d157806385e6853114610101578063e602406a1461011d575b600080fd5b610081600480360381019061007c9190610635565b610139565b005b61009d60048036038101906100989190610662565b610209565b6040516100aa91906106bd565b60405180910390f35b6100bb610238565b6040516100c89190610880565b60405180910390f35b6100eb60048036038101906100e69190610662565b61036f565b6040516100f891906106bd565b60405180910390f35b61011b60048036038101906101169190610635565b610403565b005b610137600480360381019061013291906109d7565b6104d4565b005b60018060003373ffffffffffffffffffffffffffffffffffffffff1673ffffffffffffffffffffffffffffffffffffffff16815260200190815260200160002060008373ffffffffffffffffffffffffffffffffffffffff1673ffffffffffffffffffffffffffffffffffffffff16815260200190815260200160002060006101000a81548160ff0219169083151502179055507f9f520b3bfc56d06f7065d10b4683b3f57ac8895d5026cd176dee95ce1454cb8d33826040516101fe929190610a2f565b60405180910390a150565b60016020528160005260406000206020528060005260406000206000915091509054906101000a900460ff1681565b60606000803373ffffffffffffffffffffffffffffffffffffffff1673ffffffffffffffffffffffffffffffffffffffff168152602001908152602001600020805480602002602001604051908101604052809291908181526020016000905b8282101561036657838290600052602060002090600202016040518060400160405290816000820180546102cb90610a87565b80601f01602080910402602001604051908101604052809291908181526020018280546102f790610a87565b80156103445780601f1061031957610100808354040283529160200191610344565b820191906000526020600020905b81548152906001019060200180831161032757829003601f168201915b5050505050815260200160018201548152505081526020019060010190610298565b50505050905090565b6000600160008473ffffffffffffffffffffffffffffffffffffffff1673ffffffffffffffffffffffffffffffffffffffff16815260200190815260200160002060008373ffffffffffffffffffffffffffffffffffffffff1673ffffffffffffffffffffffffffffffffffffffff16815260200190815260200160002060009054906101000a900460ff16905092915050565b6000600160003373ffffffffffffffffffffffffffffffffffffffff1673ffffffffffffffffffffffffffffffffffffffff16815260200190815260200160002060008373ffffffffffffffffffffffffffffffffffffffff1673ffffffffffffffffffffffffffffffffffffffff16815260200190815260200160002060006101000a81548160ff0219169083151502179055507f825c8be24eb0df19500f63e86c29e7d0d951e73056b889b891d85e40938d9b6e33826040516104c9929190610a2f565b60405180910390a150565b6000803373ffffffffffffffffffffffffffffffffffffffff1673ffffffffffffffffffffffffffffffffffffffff168152602001908152602001600020604051806040016040528083815260200142815250908060018154018082558091505060019003906000526020600020906002020160009091909190915060008201518160000190816105659190610c64565b506020820151816001015550503373ffffffffffffffffffffffffffffffffffffffff167f794ce8beab181d20ff474f00e6251d0a36d0c1f89797ba1b484a0be53e0dcbf1826040516105b89190610d80565b60405180910390a250565b6000604051905090565b600080fd5b600080fd5b600073ffffffffffffffffffffffffffffffffffffffff82169050919050565b6000610602826105d7565b9050919050565b610612816105f7565b811461061d57600080fd5b50565b60008135905061062f81610609565b92915050565b60006020828403121561064b5761064a6105cd565b5b600061065984828501610620565b91505092915050565b60008060408385031215610679576106786105cd565b5b600061068785828601610620565b925050602061069885828601610620565b9150509250929050565b60008115159050919050565b6106b7816106a2565b82525050565b60006020820190506106d260008301846106ae565b92915050565b600081519050919050565b600082825260208201905092915050565b6000819050602082019050919050565b600081519050919050565b600082825260208201905092915050565b60005b8381101561073e578082015181840152602081019050610723565b60008484015250505050565b6000601f19601f8301169050919050565b600061076682610704565b610770818561070f565b9350610780818560208601610720565b6107898161074a565b840191505092915050565b6000819050919050565b6107a781610794565b82525050565b600060408301600083015184820360008601526107ca828261075b565b91505060208301516107df602086018261079e565b508091505092915050565b60006107f683836107ad565b905092915050565b6000602082019050919050565b6000610816826106d8565b61082081856106e3565b935083602082028501610832856106f4565b8060005b8581101561086e578484038952815161084f85826107ea565b945061085a836107fe565b925060208a01995050600181019050610836565b50829750879550505050505092915050565b6000602082019050818103600083015261089a818461080b565b905092915050565b600080fd5b600080fd5b7f4e487b7100000000000000000000000000000000000000000000000000000000600052604160045260246000fd5b6108e48261074a565b810181811067ffffffffffffffff82111715610903576109026108ac565b5b80604052505050565b60006109166105c3565b905061092282826108db565b919050565b600067ffffffffffffffff821115610942576109416108ac565b5b61094b8261074a565b9050602081019050919050565b82818337600083830152505050565b600061097a61097584610927565b61090c565b905082815260208101848484011115610996576109956108a7565b5b6109a1848285610958565b509392505050565b600082601f8301126109be576109bd6108a2565b5b81356109ce848260208601610967565b91505092915050565b6000602082840312156109ed576109ec6105cd565b5b600082013567ffffffffffffffff811115610a0b57610a0a6105d2565b5b610a17848285016109a9565b91505092915050565b610a29816105f7565b82525050565b6000604082019050610a446000830185610a20565b610a516020830184610a20565b9392505050565b7f4e487b7100000000000000000000000000000000000000000000000000000000600052602260045260246000fd5b60006002820490506001821680610a9f57607f821691505b602082108103610ab257610ab1610a58565b5b50919050565b60008190508160005260206000209050919050565b60006020601f8301049050919050565b600082821b905092915050565b600060088302610b1a7fffffffffffffffffffffffffffffffffffffffffffffffffffffffffffffffff82610add565b610b248683610add565b95508019841693508086168417925050509392505050565b6000819050919050565b6000610b61610b5c610b5784610794565b610b3c565b610794565b9050919050565b6000819050919050565b610b7b83610b46565b610b8f610b8782610b68565b848454610aea565b825550505050565b600090565b610ba4610b97565b610baf818484610b72565b505050565b5b81811015610bd357610bc8600082610b9c565b600181019050610bb5565b5050565b601f821115610c1857610be981610ab8565b610bf284610acd565b81016020851015610c01578190505b610c15610c0d85610acd565b830182610bb4565b50505b505050565b600082821c905092915050565b6000610c3b60001984600802610c1d565b1980831691505092915050565b6000610c548383610c2a565b9150826002028217905092915050565b610c6d82610704565b67ffffffffffffffff811115610c8657610c856108ac565b5b610c908254610a87565b610c9b828285610bd7565b600060209050601f831160018114610cce5760008415610cbc578287015190505b610cc68582610c48565b865550610d2e565b601f198416610cdc86610ab8565b60005b82811015610d0457848901518255600182019150602085019450602081019050610cdf565b86831015610d215784890151610d1d601f891682610c2a565b8355505b6001600288020188555050505b505050505050565b600082825260208201905092915050565b6000610d5282610704565b610d5c8185610d36565b9350610d6c818560208601610720565b610d758161074a565b840191505092915050565b60006020820190508181036000830152610d9a8184610d47565b90509291505056fea2646970667358221220b5d2260feb20d3a93c2be825cb3b8feac6ee85a386fdb82c0f04ae00049a1aa664736f6c63430008140033",
  "linkReferences": {},
  "deployedLinkReferences": {}
}